{
  "_format": "hh-sol-artifact-1",
  "contractName": "MyEpicGame",
  "sourceName": "contracts/MyEpicGame.sol",
  "abi": [
    {
      "inputs": [
        {
          "internalType": "string[]",
          "name": "characterNames",
          "type": "string[]"
        },
        {
          "internalType": "string[]",
          "name": "characterImageURIs",
          "type": "string[]"
        },
        {
          "internalType": "uint256[]",
          "name": "characterHp",
          "type": "uint256[]"
        },
        {
          "internalType": "uint256[]",
          "name": "characterAttackDmg",
          "type": "uint256[]"
        },
        {
          "internalType": "string",
          "name": "bossName",
          "type": "string"
        },
        {
          "internalType": "string",
          "name": "bossImageURI",
          "type": "string"
        },
        {
          "internalType": "uint256",
          "name": "bossHp",
          "type": "uint256"
        },
        {
          "internalType": "uint256",
          "name": "bossAttackDamage",
          "type": "uint256"
        },
        {
          "internalType": "uint256",
          "name": "reviveFee",
          "type": "uint256"
        }
      ],
      "stateMutability": "nonpayable",
      "type": "constructor"
    },
    {
      "inputs": [],
      "name": "NeedMoreETHSent",
      "type": "error"
    },
    {
      "anonymous": false,
      "inputs": [
        {
          "indexed": true,
          "internalType": "address",
          "name": "owner",
          "type": "address"
        },
        {
          "indexed": true,
          "internalType": "address",
          "name": "approved",
          "type": "address"
        },
        {
          "indexed": true,
          "internalType": "uint256",
          "name": "tokenId",
          "type": "uint256"
        }
      ],
      "name": "Approval",
      "type": "event"
    },
    {
      "anonymous": false,
      "inputs": [
        {
          "indexed": true,
          "internalType": "address",
          "name": "owner",
          "type": "address"
        },
        {
          "indexed": true,
          "internalType": "address",
          "name": "operator",
          "type": "address"
        },
        {
          "indexed": false,
          "internalType": "bool",
          "name": "approved",
          "type": "bool"
        }
      ],
      "name": "ApprovalForAll",
      "type": "event"
    },
    {
      "anonymous": false,
      "inputs": [
        {
          "indexed": false,
          "internalType": "address",
          "name": "sender",
          "type": "address"
        },
        {
          "indexed": false,
          "internalType": "uint256",
          "name": "newBossHp",
          "type": "uint256"
        },
        {
          "indexed": false,
          "internalType": "uint256",
          "name": "newPlayerHp",
          "type": "uint256"
        }
      ],
      "name": "AttackComplete",
      "type": "event"
    },
    {
      "anonymous": false,
      "inputs": [
        {
          "indexed": false,
          "internalType": "address",
          "name": "sender",
          "type": "address"
        },
        {
          "indexed": false,
          "internalType": "uint256",
          "name": "tokenId",
          "type": "uint256"
        },
        {
          "indexed": false,
          "internalType": "uint256",
          "name": "characterIndex",
          "type": "uint256"
        }
      ],
      "name": "CharacterNFTMinted",
      "type": "event"
    },
    {
      "anonymous": false,
      "inputs": [
        {
          "indexed": true,
          "internalType": "address",
          "name": "from",
          "type": "address"
        },
        {
          "indexed": true,
          "internalType": "address",
          "name": "to",
          "type": "address"
        },
        {
          "indexed": true,
          "internalType": "uint256",
          "name": "tokenId",
          "type": "uint256"
        }
      ],
      "name": "Transfer",
      "type": "event"
    },
    {
      "inputs": [
        {
          "internalType": "address",
          "name": "to",
          "type": "address"
        },
        {
          "internalType": "uint256",
          "name": "tokenId",
          "type": "uint256"
        }
      ],
      "name": "approve",
      "outputs": [],
      "stateMutability": "nonpayable",
      "type": "function"
    },
    {
      "inputs": [],
      "name": "attackBoss",
      "outputs": [],
      "stateMutability": "nonpayable",
      "type": "function"
    },
    {
      "inputs": [
        {
          "internalType": "address",
          "name": "owner",
          "type": "address"
        }
      ],
      "name": "balanceOf",
      "outputs": [
        {
          "internalType": "uint256",
          "name": "",
          "type": "uint256"
        }
      ],
      "stateMutability": "view",
      "type": "function"
    },
    {
      "inputs": [],
      "name": "bigBoss",
      "outputs": [
        {
          "internalType": "string",
          "name": "name",
          "type": "string"
        },
        {
          "internalType": "string",
          "name": "imageURI",
          "type": "string"
        },
        {
          "internalType": "uint256",
          "name": "hp",
          "type": "uint256"
        },
        {
          "internalType": "uint256",
          "name": "maxHp",
          "type": "uint256"
        },
        {
          "internalType": "uint256",
          "name": "attackDamage",
          "type": "uint256"
        }
      ],
      "stateMutability": "view",
      "type": "function"
    },
    {
      "inputs": [],
      "name": "checkIfUserHasNFT",
      "outputs": [
        {
          "components": [
            {
              "internalType": "uint256",
              "name": "characterIndex",
              "type": "uint256"
            },
            {
              "internalType": "string",
              "name": "name",
              "type": "string"
            },
            {
              "internalType": "string",
              "name": "imageURI",
              "type": "string"
            },
            {
              "internalType": "uint256",
              "name": "hp",
              "type": "uint256"
            },
            {
              "internalType": "uint256",
              "name": "maxHp",
              "type": "uint256"
            },
            {
              "internalType": "uint256",
              "name": "attackDamage",
              "type": "uint256"
            }
          ],
          "internalType": "struct MyEpicGame.CharacterAttributes",
          "name": "",
          "type": "tuple"
        }
      ],
      "stateMutability": "view",
      "type": "function"
    },
    {
      "inputs": [],
      "name": "getAllDefaultCharacters",
      "outputs": [
        {
          "components": [
            {
              "internalType": "uint256",
              "name": "characterIndex",
              "type": "uint256"
            },
            {
              "internalType": "string",
              "name": "name",
              "type": "string"
            },
            {
              "internalType": "string",
              "name": "imageURI",
              "type": "string"
            },
            {
              "internalType": "uint256",
              "name": "hp",
              "type": "uint256"
            },
            {
              "internalType": "uint256",
              "name": "maxHp",
              "type": "uint256"
            },
            {
              "internalType": "uint256",
              "name": "attackDamage",
              "type": "uint256"
            }
          ],
          "internalType": "struct MyEpicGame.CharacterAttributes[]",
          "name": "",
          "type": "tuple[]"
        }
      ],
      "stateMutability": "view",
      "type": "function"
    },
    {
      "inputs": [
        {
          "internalType": "uint256",
          "name": "tokenId",
          "type": "uint256"
        }
      ],
      "name": "getApproved",
      "outputs": [
        {
          "internalType": "address",
          "name": "",
          "type": "address"
        }
      ],
      "stateMutability": "view",
      "type": "function"
    },
    {
      "inputs": [],
      "name": "getBigBoss",
      "outputs": [
        {
          "components": [
            {
              "internalType": "string",
              "name": "name",
              "type": "string"
            },
            {
              "internalType": "string",
              "name": "imageURI",
              "type": "string"
            },
            {
              "internalType": "uint256",
              "name": "hp",
              "type": "uint256"
            },
            {
              "internalType": "uint256",
              "name": "maxHp",
              "type": "uint256"
            },
            {
              "internalType": "uint256",
              "name": "attackDamage",
              "type": "uint256"
            }
          ],
          "internalType": "struct MyEpicGame.BigBoss",
          "name": "",
          "type": "tuple"
        }
      ],
      "stateMutability": "view",
      "type": "function"
    },
    {
      "inputs": [
        {
          "internalType": "address",
          "name": "owner",
          "type": "address"
        },
        {
          "internalType": "address",
          "name": "operator",
          "type": "address"
        }
      ],
      "name": "isApprovedForAll",
      "outputs": [
        {
          "internalType": "bool",
          "name": "",
          "type": "bool"
        }
      ],
      "stateMutability": "view",
      "type": "function"
    },
    {
      "inputs": [
        {
          "internalType": "uint256",
          "name": "_characterIndex",
          "type": "uint256"
        }
      ],
      "name": "mintCharacterNFT",
      "outputs": [],
      "stateMutability": "nonpayable",
      "type": "function"
    },
    {
      "inputs": [],
      "name": "name",
      "outputs": [
        {
          "internalType": "string",
          "name": "",
          "type": "string"
        }
      ],
      "stateMutability": "view",
      "type": "function"
    },
    {
      "inputs": [
        {
          "internalType": "uint256",
          "name": "",
          "type": "uint256"
        }
      ],
      "name": "nftHolderAttributes",
      "outputs": [
        {
          "internalType": "uint256",
          "name": "characterIndex",
          "type": "uint256"
        },
        {
          "internalType": "string",
          "name": "name",
          "type": "string"
        },
        {
          "internalType": "string",
          "name": "imageURI",
          "type": "string"
        },
        {
          "internalType": "uint256",
          "name": "hp",
          "type": "uint256"
        },
        {
          "internalType": "uint256",
          "name": "maxHp",
          "type": "uint256"
        },
        {
          "internalType": "uint256",
          "name": "attackDamage",
          "type": "uint256"
        }
      ],
      "stateMutability": "view",
      "type": "function"
    },
    {
      "inputs": [
        {
          "internalType": "address",
          "name": "",
          "type": "address"
        }
      ],
      "name": "nftHolders",
      "outputs": [
        {
          "internalType": "uint256",
          "name": "",
          "type": "uint256"
        }
      ],
      "stateMutability": "view",
      "type": "function"
    },
    {
      "inputs": [
        {
          "internalType": "uint256",
          "name": "tokenId",
          "type": "uint256"
        }
      ],
      "name": "ownerOf",
      "outputs": [
        {
          "internalType": "address",
          "name": "",
          "type": "address"
        }
      ],
      "stateMutability": "view",
      "type": "function"
    },
    {
      "inputs": [],
      "name": "revivePlayer",
      "outputs": [],
      "stateMutability": "payable",
      "type": "function"
    },
    {
      "inputs": [
        {
          "internalType": "address",
          "name": "from",
          "type": "address"
        },
        {
          "internalType": "address",
          "name": "to",
          "type": "address"
        },
        {
          "internalType": "uint256",
          "name": "tokenId",
          "type": "uint256"
        }
      ],
      "name": "safeTransferFrom",
      "outputs": [],
      "stateMutability": "nonpayable",
      "type": "function"
    },
    {
      "inputs": [
        {
          "internalType": "address",
          "name": "from",
          "type": "address"
        },
        {
          "internalType": "address",
          "name": "to",
          "type": "address"
        },
        {
          "internalType": "uint256",
          "name": "tokenId",
          "type": "uint256"
        },
        {
          "internalType": "bytes",
          "name": "data",
          "type": "bytes"
        }
      ],
      "name": "safeTransferFrom",
      "outputs": [],
      "stateMutability": "nonpayable",
      "type": "function"
    },
    {
      "inputs": [
        {
          "internalType": "address",
          "name": "operator",
          "type": "address"
        },
        {
          "internalType": "bool",
          "name": "approved",
          "type": "bool"
        }
      ],
      "name": "setApprovalForAll",
      "outputs": [],
      "stateMutability": "nonpayable",
      "type": "function"
    },
    {
      "inputs": [
        {
          "internalType": "bytes4",
          "name": "interfaceId",
          "type": "bytes4"
        }
      ],
      "name": "supportsInterface",
      "outputs": [
        {
          "internalType": "bool",
          "name": "",
          "type": "bool"
        }
      ],
      "stateMutability": "view",
      "type": "function"
    },
    {
      "inputs": [],
      "name": "symbol",
      "outputs": [
        {
          "internalType": "string",
          "name": "",
          "type": "string"
        }
      ],
      "stateMutability": "view",
      "type": "function"
    },
    {
      "inputs": [
        {
          "internalType": "uint256",
          "name": "_tokenId",
          "type": "uint256"
        }
      ],
      "name": "tokenURI",
      "outputs": [
        {
          "internalType": "string",
          "name": "",
          "type": "string"
        }
      ],
      "stateMutability": "view",
      "type": "function"
    },
    {
      "inputs": [
        {
          "internalType": "address",
          "name": "from",
          "type": "address"
        },
        {
          "internalType": "address",
          "name": "to",
          "type": "address"
        },
        {
          "internalType": "uint256",
          "name": "tokenId",
          "type": "uint256"
        }
      ],
      "name": "transferFrom",
      "outputs": [],
      "stateMutability": "nonpayable",
      "type": "function"
    }
  ],
  "bytecode": "0x60a06040523480156200001157600080fd5b506040516200593a3803806200593a833981810160405281019062000037919062000a8e565b6040518060400160405280600681526020017f4865726f657300000000000000000000000000000000000000000000000000008152506040518060400160405280600481526020017f4845524f000000000000000000000000000000000000000000000000000000008152508160009080519060200190620000bb929190620007f6565b508060019080519060200190620000d4929190620007f6565b50505080608081815250506040518060a00160405280868152602001858152602001848152602001848152602001838152506009600082015181600001908051906020019062000126929190620007f6565b50602082015181600101908051906020019062000145929190620007f6565b50604082015181600201556060820151816003015560808201518160040155905050620002c86040518060600160405280602a815260200162005910602a913960096000018054620001979062000e27565b80601f0160208091040260200160405190810160405280929190818152602001828054620001c59062000e27565b8015620002165780601f10620001ea5761010080835404028352916020019162000216565b820191906000526020600020905b815481529060010190602001808311620001f857829003601f168201915b505050505060096002015460096001018054620002339062000e27565b80601f0160208091040260200160405190810160405280929190818152602001828054620002619062000e27565b8015620002b25780601f106200028657610100808354040283529160200191620002b2565b820191906000526020600020905b8154815290600101906020018083116200029457829003601f168201915b50505050506200070b60201b62001d771760201c565b60005b8951811015620006e45760076040518060c001604052808381526020018c848151811062000322577f4e487b7100000000000000000000000000000000000000000000000000000000600052603260045260246000fd5b602002602001015181526020018b848151811062000369577f4e487b7100000000000000000000000000000000000000000000000000000000600052603260045260246000fd5b602002602001015181526020018a8481518110620003b0577f4e487b7100000000000000000000000000000000000000000000000000000000600052603260045260246000fd5b602002602001015181526020018a8481518110620003f7577f4e487b7100000000000000000000000000000000000000000000000000000000600052603260045260246000fd5b602002602001015181526020018984815181106200043e577f4e487b7100000000000000000000000000000000000000000000000000000000600052603260045260246000fd5b602002602001015181525090806001815401808255809150506001900390600052602060002090600602016000909190919091506000820151816000015560208201518160010190805190602001906200049a929190620007f6565b506040820151816002019080519060200190620004b9929190620007f6565b50606082015181600301556080820151816004015560a08201518160050155505060006007828154811062000517577f4e487b7100000000000000000000000000000000000000000000000000000000600052603260045260246000fd5b90600052602060002090600602016040518060c0016040529081600082015481526020016001820180546200054c9062000e27565b80601f01602080910402602001604051908101604052809291908181526020018280546200057a9062000e27565b8015620005cb5780601f106200059f57610100808354040283529160200191620005cb565b820191906000526020600020905b815481529060010190602001808311620005ad57829003601f168201915b50505050508152602001600282018054620005e69062000e27565b80601f0160208091040260200160405190810160405280929190818152602001828054620006149062000e27565b8015620006655780601f10620006395761010080835404028352916020019162000665565b820191906000526020600020905b8154815290600101906020018083116200064757829003601f168201915b5050505050815260200160038201548152602001600482015481526020016005820154815250509050620006cc604051806060016040528060258152602001620058eb602591398260200151836060015184604001516200070b60201b62001d771760201c565b50600181620006dc919062000d8a565b9050620002cb565b50620006fc6006620007b760201b62001e191760201c565b50505050505050505062000f4b565b620007b18484848460405160240162000728949392919062000c4f565b6040516020818303038152906040527f8d142cdd000000000000000000000000000000000000000000000000000000007bffffffffffffffffffffffffffffffffffffffffffffffffffffffff19166020820180517bffffffffffffffffffffffffffffffffffffffffffffffffffffffff8381831617835250505050620007cd60201b60201c565b50505050565b6001816000016000828254019250508190555050565b60008151905060006a636f6e736f6c652e6c6f679050602083016000808483855afa5050505050565b828054620008049062000e27565b90600052602060002090601f01602090048101928262000828576000855562000874565b82601f106200084357805160ff191683800117855562000874565b8280016001018555821562000874579182015b828111156200087357825182559160200191906001019062000856565b5b50905062000883919062000887565b5090565b5b80821115620008a257600081600090555060010162000888565b5090565b6000620008bd620008b78462000cda565b62000cb1565b90508083825260208201905082856020860282011115620008dd57600080fd5b60005b858110156200092c57815167ffffffffffffffff8111156200090157600080fd5b80860162000910898262000a4a565b85526020850194506020840193505050600181019050620008e0565b5050509392505050565b60006200094d620009478462000d09565b62000cb1565b905080838252602082019050828560208602820111156200096d57600080fd5b60005b85811015620009a1578162000986888262000a77565b84526020840193506020830192505060018101905062000970565b5050509392505050565b6000620009c2620009bc8462000d38565b62000cb1565b905082815260208101848484011115620009db57600080fd5b620009e884828562000df1565b509392505050565b600082601f83011262000a0257600080fd5b815162000a14848260208601620008a6565b91505092915050565b600082601f83011262000a2f57600080fd5b815162000a4184826020860162000936565b91505092915050565b600082601f83011262000a5c57600080fd5b815162000a6e848260208601620009ab565b91505092915050565b60008151905062000a888162000f31565b92915050565b60008060008060008060008060006101208a8c03121562000aae57600080fd5b60008a015167ffffffffffffffff81111562000ac957600080fd5b62000ad78c828d01620009f0565b99505060208a015167ffffffffffffffff81111562000af557600080fd5b62000b038c828d01620009f0565b98505060408a015167ffffffffffffffff81111562000b2157600080fd5b62000b2f8c828d0162000a1d565b97505060608a015167ffffffffffffffff81111562000b4d57600080fd5b62000b5b8c828d0162000a1d565b96505060808a015167ffffffffffffffff81111562000b7957600080fd5b62000b878c828d0162000a4a565b95505060a08a015167ffffffffffffffff81111562000ba557600080fd5b62000bb38c828d0162000a4a565b94505060c062000bc68c828d0162000a77565b93505060e062000bd98c828d0162000a77565b92505061010062000bed8c828d0162000a77565b9150509295985092959850929598565b600062000c0a8262000d6e565b62000c16818562000d79565b935062000c2881856020860162000df1565b62000c338162000f20565b840191505092915050565b62000c498162000de7565b82525050565b6000608082019050818103600083015262000c6b818762000bfd565b9050818103602083015262000c81818662000bfd565b905062000c92604083018562000c3e565b818103606083015262000ca6818462000bfd565b905095945050505050565b600062000cbd62000cd0565b905062000ccb828262000e5d565b919050565b6000604051905090565b600067ffffffffffffffff82111562000cf85762000cf762000ef1565b5b602082029050602081019050919050565b600067ffffffffffffffff82111562000d275762000d2662000ef1565b5b602082029050602081019050919050565b600067ffffffffffffffff82111562000d565762000d5562000ef1565b5b62000d618262000f20565b9050602081019050919050565b600081519050919050565b600082825260208201905092915050565b600062000d978262000de7565b915062000da48362000de7565b9250827fffffffffffffffffffffffffffffffffffffffffffffffffffffffffffffffff0382111562000ddc5762000ddb62000e93565b5b828201905092915050565b6000819050919050565b60005b8381101562000e1157808201518184015260208101905062000df4565b8381111562000e21576000848401525b50505050565b6000600282049050600182168062000e4057607f821691505b6020821081141562000e575762000e5662000ec2565b5b50919050565b62000e688262000f20565b810181811067ffffffffffffffff8211171562000e8a5762000e8962000ef1565b5b80604052505050565b7f4e487b7100000000000000000000000000000000000000000000000000000000600052601160045260246000fd5b7f4e487b7100000000000000000000000000000000000000000000000000000000600052602260045260246000fd5b7f4e487b7100000000000000000000000000000000000000000000000000000000600052604160045260246000fd5b6000601f19601f8301169050919050565b62000f3c8162000de7565b811462000f4857600080fd5b50565b60805161498462000f6760003960006109d401526149846000f3fe6080604052600436106101355760003560e01c806395d89b41116100ab578063b953084e1161006f578063b953084e14610434578063c87b56dd1461045f578063c8cf27f41461049c578063d4f24c5b146104c7578063e985e9c5146104de578063f8b81ef71461051b57610135565b806395d89b411461034657806398da4c9514610371578063a22cb465146103b3578063a9c32679146103dc578063b88d4fde1461040b57610135565b806323b872dd116100fd57806323b872dd146102335780632a4c52db1461025c57806342842e0e146102665780636352211e1461028f57806370a08231146102cc5780637df124a11461030957610135565b806301ffc9a71461013a5780630665f9611461017757806306fdde03146101a2578063081812fc146101cd578063095ea7b31461020a575b600080fd5b34801561014657600080fd5b50610161600480360381019061015c91906131ec565b610544565b60405161016e9190613a0b565b60405180910390f35b34801561018357600080fd5b5061018c610626565b6040516101999190613d64565b60405180910390f35b3480156101ae57600080fd5b506101b7610782565b6040516101c49190613a26565b60405180910390f35b3480156101d957600080fd5b506101f460048036038101906101ef919061323e565b610814565b604051610201919061394b565b60405180910390f35b34801561021657600080fd5b50610231600480360381019061022c91906131b0565b61085a565b005b34801561023f57600080fd5b5061025a600480360381019061025591906130aa565b610972565b005b6102646109d2565b005b34801561027257600080fd5b5061028d600480360381019061028891906130aa565b610a98565b005b34801561029b57600080fd5b506102b660048036038101906102b1919061323e565b610ab8565b6040516102c3919061394b565b60405180910390f35b3480156102d857600080fd5b506102f360048036038101906102ee9190613045565b610b6a565b6040516103009190613da8565b60405180910390f35b34801561031557600080fd5b50610330600480360381019061032b9190613045565b610c22565b60405161033d9190613da8565b60405180910390f35b34801561035257600080fd5b5061035b610c3a565b6040516103689190613a26565b60405180910390f35b34801561037d57600080fd5b506103986004803603810190610393919061323e565b610ccc565b6040516103aa96959493929190613dc3565b60405180910390f35b3480156103bf57600080fd5b506103da60048036038101906103d59190613174565b610e18565b005b3480156103e857600080fd5b506103f1610e2e565b604051610402959493929190613af5565b60405180910390f35b34801561041757600080fd5b50610432600480360381019061042d91906130f9565b610f62565b005b34801561044057600080fd5b50610449610fc4565b60405161045691906139e9565b60405180910390f35b34801561046b57600080fd5b506104866004803603810190610481919061323e565b61116f565b6040516104939190613a26565b60405180910390f35b3480156104a857600080fd5b506104b161138a565b6040516104be9190613d86565b60405180910390f35b3480156104d357600080fd5b506104dc611562565b005b3480156104ea57600080fd5b506105056004803603810190610500919061306e565b6118ef565b6040516105129190613a0b565b60405180910390f35b34801561052757600080fd5b50610542600480360381019061053d919061323e565b611983565b005b60007f80ac58cd000000000000000000000000000000000000000000000000000000007bffffffffffffffffffffffffffffffffffffffffffffffffffffffff1916827bffffffffffffffffffffffffffffffffffffffffffffffffffffffff1916148061060f57507f5b5e139f000000000000000000000000000000000000000000000000000000007bffffffffffffffffffffffffffffffffffffffffffffffffffffffff1916827bffffffffffffffffffffffffffffffffffffffffffffffffffffffff1916145b8061061f575061061e82611e2f565b5b9050919050565b61062e612e6c565b60096040518060a001604052908160008201805461064b906140e0565b80601f0160208091040260200160405190810160405280929190818152602001828054610677906140e0565b80156106c45780601f10610699576101008083540402835291602001916106c4565b820191906000526020600020905b8154815290600101906020018083116106a757829003601f168201915b505050505081526020016001820180546106dd906140e0565b80601f0160208091040260200160405190810160405280929190818152602001828054610709906140e0565b80156107565780601f1061072b57610100808354040283529160200191610756565b820191906000526020600020905b81548152906001019060200180831161073957829003601f168201915b505050505081526020016002820154815260200160038201548152602001600482015481525050905090565b606060008054610791906140e0565b80601f01602080910402602001604051908101604052809291908181526020018280546107bd906140e0565b801561080a5780601f106107df5761010080835404028352916020019161080a565b820191906000526020600020905b8154815290600101906020018083116107ed57829003601f168201915b5050505050905090565b600061081f82611e99565b6004600083815260200190815260200160002060009054906101000a900473ffffffffffffffffffffffffffffffffffffffff169050919050565b600061086582610ab8565b90508073ffffffffffffffffffffffffffffffffffffffff168373ffffffffffffffffffffffffffffffffffffffff1614156108d6576040517f08c379a00000000000000000000000000000000000000000000000000000000081526004016108cd90613ce4565b60405180910390fd5b8073ffffffffffffffffffffffffffffffffffffffff166108f5611ee4565b73ffffffffffffffffffffffffffffffffffffffff16148061092457506109238161091e611ee4565b6118ef565b5b610963576040517f08c379a000000000000000000000000000000000000000000000000000000000815260040161095a90613c84565b60405180910390fd5b61096d8383611eec565b505050565b61098361097d611ee4565b82611fa5565b6109c2576040517f08c379a00000000000000000000000000000000000000000000000000000000081526004016109b990613d24565b60405180910390fd5b6109cd83838361203a565b505050565b7f0000000000000000000000000000000000000000000000000000000000000000341015610a2c576040517f2e53d2d300000000000000000000000000000000000000000000000000000000815260040160405180910390fd5b6000600e60003373ffffffffffffffffffffffffffffffffffffffff1673ffffffffffffffffffffffffffffffffffffffff1681526020019081526020016000205490506000600860008381526020019081526020016000209050806004015481600301819055505050565b610ab383838360405180602001604052806000815250610f62565b505050565b6000806002600084815260200190815260200160002060009054906101000a900473ffffffffffffffffffffffffffffffffffffffff169050600073ffffffffffffffffffffffffffffffffffffffff168173ffffffffffffffffffffffffffffffffffffffff161415610b61576040517f08c379a0000000000000000000000000000000000000000000000000000000008152600401610b5890613cc4565b60405180910390fd5b80915050919050565b60008073ffffffffffffffffffffffffffffffffffffffff168273ffffffffffffffffffffffffffffffffffffffff161415610bdb576040517f08c379a0000000000000000000000000000000000000000000000000000000008152600401610bd290613c64565b60405180910390fd5b600360008373ffffffffffffffffffffffffffffffffffffffff1673ffffffffffffffffffffffffffffffffffffffff168152602001908152602001600020549050919050565b600e6020528060005260406000206000915090505481565b606060018054610c49906140e0565b80601f0160208091040260200160405190810160405280929190818152602001828054610c75906140e0565b8015610cc25780601f10610c9757610100808354040283529160200191610cc2565b820191906000526020600020905b815481529060010190602001808311610ca557829003601f168201915b5050505050905090565b6008602052806000526040600020600091509050806000015490806001018054610cf5906140e0565b80601f0160208091040260200160405190810160405280929190818152602001828054610d21906140e0565b8015610d6e5780601f10610d4357610100808354040283529160200191610d6e565b820191906000526020600020905b815481529060010190602001808311610d5157829003601f168201915b505050505090806002018054610d83906140e0565b80601f0160208091040260200160405190810160405280929190818152602001828054610daf906140e0565b8015610dfc5780601f10610dd157610100808354040283529160200191610dfc565b820191906000526020600020905b815481529060010190602001808311610ddf57829003601f168201915b5050505050908060030154908060040154908060050154905086565b610e2a610e23611ee4565b83836122a1565b5050565b6009806000018054610e3f906140e0565b80601f0160208091040260200160405190810160405280929190818152602001828054610e6b906140e0565b8015610eb85780601f10610e8d57610100808354040283529160200191610eb8565b820191906000526020600020905b815481529060010190602001808311610e9b57829003601f168201915b505050505090806001018054610ecd906140e0565b80601f0160208091040260200160405190810160405280929190818152602001828054610ef9906140e0565b8015610f465780601f10610f1b57610100808354040283529160200191610f46565b820191906000526020600020905b815481529060010190602001808311610f2957829003601f168201915b5050505050908060020154908060030154908060040154905085565b610f73610f6d611ee4565b83611fa5565b610fb2576040517f08c379a0000000000000000000000000000000000000000000000000000000008152600401610fa990613d24565b60405180910390fd5b610fbe8484848461240e565b50505050565b60606007805480602002602001604051908101604052809291908181526020016000905b8282101561116657838290600052602060002090600602016040518060c001604052908160008201548152602001600182018054611025906140e0565b80601f0160208091040260200160405190810160405280929190818152602001828054611051906140e0565b801561109e5780601f106110735761010080835404028352916020019161109e565b820191906000526020600020905b81548152906001019060200180831161108157829003601f168201915b505050505081526020016002820180546110b7906140e0565b80601f01602080910402602001604051908101604052809291908181526020018280546110e3906140e0565b80156111305780601f1061110557610100808354040283529160200191611130565b820191906000526020600020905b81548152906001019060200180831161111357829003601f168201915b50505050508152602001600382015481526020016004820154815260200160058201548152505081526020019060010190610fe8565b50505050905090565b60606000600860008481526020019081526020016000206040518060c0016040529081600082015481526020016001820180546111ab906140e0565b80601f01602080910402602001604051908101604052809291908181526020018280546111d7906140e0565b80156112245780601f106111f957610100808354040283529160200191611224565b820191906000526020600020905b81548152906001019060200180831161120757829003601f168201915b5050505050815260200160028201805461123d906140e0565b80601f0160208091040260200160405190810160405280929190818152602001828054611269906140e0565b80156112b65780601f1061128b576101008083540402835291602001916112b6565b820191906000526020600020905b81548152906001019060200180831161129957829003601f168201915b505050505081526020016003820154815260200160048201548152602001600582015481525050905060006112ee826060015161246a565b905060006112ff836080015161246a565b905060006113108460a0015161246a565b9050600061135685602001516113258961246a565b876040015187878760405160200161134296959493929190613884565b604051602081830303815290604052612617565b905060008160405160200161136b9190613929565b6040516020818303038152906040529050809650505050505050919050565b611392612e9b565b6000600e60003373ffffffffffffffffffffffffffffffffffffffff1673ffffffffffffffffffffffffffffffffffffffff168152602001908152602001600020549050600081111561155157600860008281526020019081526020016000206040518060c001604052908160008201548152602001600182018054611417906140e0565b80601f0160208091040260200160405190810160405280929190818152602001828054611443906140e0565b80156114905780601f1061146557610100808354040283529160200191611490565b820191906000526020600020905b81548152906001019060200180831161147357829003601f168201915b505050505081526020016002820180546114a9906140e0565b80601f01602080910402602001604051908101604052809291908181526020018280546114d5906140e0565b80156115225780601f106114f757610100808354040283529160200191611522565b820191906000526020600020905b81548152906001019060200180831161150557829003601f168201915b50505050508152602001600382015481526020016004820154815260200160058201548152505091505061155f565b611559612e9b565b80925050505b90565b6000600e60003373ffffffffffffffffffffffffffffffffffffffff1673ffffffffffffffffffffffffffffffffffffffff16815260200190815260200160002054905060006008600083815260200190815260200160002090506116756040518060600160405280603c8152602001614913603c91398260010180546115e8906140e0565b80601f0160208091040260200160405190810160405280929190818152602001828054611614906140e0565b80156116615780601f1061163657610100808354040283529160200191611661565b820191906000526020600020905b81548152906001019060200180831161164457829003601f168201915b5050505050836003015484600501546127d5565b61174d6040518060400160405280601b81526020017f426f73732025732068617320257320485020616e642025732041440000000000815250600960000180546116be906140e0565b80601f01602080910402602001604051908101604052809291908181526020018280546116ea906140e0565b80156117375780601f1061170c57610100808354040283529160200191611737565b820191906000526020600020905b81548152906001019060200180831161171a57829003601f168201915b50505050506009600201546009600401546127d5565b6000816003015411611794576040517f08c379a000000000000000000000000000000000000000000000000000000000815260040161178b90613d44565b60405180910390fd5b6000600960020154116117dc576040517f08c379a00000000000000000000000000000000000000000000000000000000081526004016117d390613d04565b60405180910390fd5b806005015460096002015410156117fd57600060096002018190555061181c565b80600501546009600201546118129190613ff6565b6009600201819055505b6009600401548160030154101561183c576000816003018190555061185a565b60096004015481600301546118519190613ff6565b81600301819055505b61188160405180606001604052806025815260200161485860259139600960020154612877565b6118a76040518060600160405280602881526020016148bd602891398260030154612877565b7f32bd565ee3f2cb5ddd742bbecd6048d3e9abe90b3827a40c2b72d232e71e3c9d3360096002015483600301546040516118e3939291906139b2565b60405180910390a15050565b6000600560008473ffffffffffffffffffffffffffffffffffffffff1673ffffffffffffffffffffffffffffffffffffffff16815260200190815260200160002060008373ffffffffffffffffffffffffffffffffffffffff1673ffffffffffffffffffffffffffffffffffffffff16815260200190815260200160002060009054906101000a900460ff16905092915050565b600061198f6006612913565b905061199b3382612921565b6040518060c00160405280838152602001600784815481106119e6577f4e487b7100000000000000000000000000000000000000000000000000000000600052603260045260246000fd5b90600052602060002090600602016001018054611a02906140e0565b80601f0160208091040260200160405190810160405280929190818152602001828054611a2e906140e0565b8015611a7b5780601f10611a5057610100808354040283529160200191611a7b565b820191906000526020600020905b815481529060010190602001808311611a5e57829003601f168201915b5050505050815260200160078481548110611abf577f4e487b7100000000000000000000000000000000000000000000000000000000600052603260045260246000fd5b90600052602060002090600602016002018054611adb906140e0565b80601f0160208091040260200160405190810160405280929190818152602001828054611b07906140e0565b8015611b545780601f10611b2957610100808354040283529160200191611b54565b820191906000526020600020905b815481529060010190602001808311611b3757829003601f168201915b5050505050815260200160078481548110611b98577f4e487b7100000000000000000000000000000000000000000000000000000000600052603260045260246000fd5b906000526020600020906006020160030154815260200160078481548110611be9577f4e487b7100000000000000000000000000000000000000000000000000000000600052603260045260246000fd5b906000526020600020906006020160040154815260200160078481548110611c3a577f4e487b7100000000000000000000000000000000000000000000000000000000600052603260045260246000fd5b90600052602060002090600602016005015481525060086000838152602001908152602001600020600082015181600001556020820151816001019080519060200190611c88929190612ed1565b506040820151816002019080519060200190611ca5929190612ed1565b50606082015181600301556080820151816004015560a08201518160050155905050611cea6040518060600160405280602e81526020016148e5602e9139828461293f565b80600e60003373ffffffffffffffffffffffffffffffffffffffff1673ffffffffffffffffffffffffffffffffffffffff16815260200190815260200160002081905550611d386006611e19565b7f4bc303fd457a97b4691b9af582ce71868a3d258638c8d4f8c60988a0f0bfb8cd338284604051611d6b939291906139b2565b60405180910390a15050565b611e1384848484604051602401611d919493929190613a48565b6040516020818303038152906040527f8d142cdd000000000000000000000000000000000000000000000000000000007bffffffffffffffffffffffffffffffffffffffffffffffffffffffff19166020820180517bffffffffffffffffffffffffffffffffffffffffffffffffffffffff83818316178352505050506129de565b50505050565b6001816000016000828254019250508190555050565b60007f01ffc9a7000000000000000000000000000000000000000000000000000000007bffffffffffffffffffffffffffffffffffffffffffffffffffffffff1916827bffffffffffffffffffffffffffffffffffffffffffffffffffffffff1916149050919050565b611ea281612a07565b611ee1576040517f08c379a0000000000000000000000000000000000000000000000000000000008152600401611ed890613cc4565b60405180910390fd5b50565b600033905090565b816004600083815260200190815260200160002060006101000a81548173ffffffffffffffffffffffffffffffffffffffff021916908373ffffffffffffffffffffffffffffffffffffffff160217905550808273ffffffffffffffffffffffffffffffffffffffff16611f5f83610ab8565b73ffffffffffffffffffffffffffffffffffffffff167f8c5be1e5ebec7d5bd14f71427d1e84f3dd0314c0f7b2291e5b200ac8c7c3b92560405160405180910390a45050565b600080611fb183610ab8565b90508073ffffffffffffffffffffffffffffffffffffffff168473ffffffffffffffffffffffffffffffffffffffff161480611ff35750611ff281856118ef565b5b8061203157508373ffffffffffffffffffffffffffffffffffffffff1661201984610814565b73ffffffffffffffffffffffffffffffffffffffff16145b91505092915050565b8273ffffffffffffffffffffffffffffffffffffffff1661205a82610ab8565b73ffffffffffffffffffffffffffffffffffffffff16146120b0576040517f08c379a00000000000000000000000000000000000000000000000000000000081526004016120a790613be4565b60405180910390fd5b600073ffffffffffffffffffffffffffffffffffffffff168273ffffffffffffffffffffffffffffffffffffffff161415612120576040517f08c379a000000000000000000000000000000000000000000000000000000000815260040161211790613c24565b60405180910390fd5b61212b838383612a73565b612136600082611eec565b6001600360008573ffffffffffffffffffffffffffffffffffffffff1673ffffffffffffffffffffffffffffffffffffffff16815260200190815260200160002060008282546121869190613ff6565b925050819055506001600360008473ffffffffffffffffffffffffffffffffffffffff1673ffffffffffffffffffffffffffffffffffffffff16815260200190815260200160002060008282546121dd9190613f15565b92505081905550816002600083815260200190815260200160002060006101000a81548173ffffffffffffffffffffffffffffffffffffffff021916908373ffffffffffffffffffffffffffffffffffffffff160217905550808273ffffffffffffffffffffffffffffffffffffffff168473ffffffffffffffffffffffffffffffffffffffff167fddf252ad1be2c89b69c2b068fc378daa952ba7f163c4a11628f55a4df523b3ef60405160405180910390a461229c838383612a78565b505050565b8173ffffffffffffffffffffffffffffffffffffffff168373ffffffffffffffffffffffffffffffffffffffff161415612310576040517f08c379a000000000000000000000000000000000000000000000000000000000815260040161230790613c44565b60405180910390fd5b80600560008573ffffffffffffffffffffffffffffffffffffffff1673ffffffffffffffffffffffffffffffffffffffff16815260200190815260200160002060008473ffffffffffffffffffffffffffffffffffffffff1673ffffffffffffffffffffffffffffffffffffffff16815260200190815260200160002060006101000a81548160ff0219169083151502179055508173ffffffffffffffffffffffffffffffffffffffff168373ffffffffffffffffffffffffffffffffffffffff167f17307eab39ab6107e8899845ad3d59bd9653f200f220920489ca2b5937696c31836040516124019190613a0b565b60405180910390a3505050565b61241984848461203a565b61242584848484612a7d565b612464576040517f08c379a000000000000000000000000000000000000000000000000000000000815260040161245b90613bc4565b60405180910390fd5b50505050565b606060008214156124b2576040518060400160405280600181526020017f30000000000000000000000000000000000000000000000000000000000000008152509050612612565b600082905060005b600082146124e45780806124cd90614143565b915050600a826124dd9190613f6b565b91506124ba565b60008167ffffffffffffffff811115612526577f4e487b7100000000000000000000000000000000000000000000000000000000600052604160045260246000fd5b6040519080825280601f01601f1916602001820160405280156125585781602001600182028036833780820191505090505b5090505b6000851461260b576001826125719190613ff6565b9150600a85612580919061418c565b603061258c9190613f15565b60f81b8183815181106125c8577f4e487b7100000000000000000000000000000000000000000000000000000000600052603260045260246000fd5b60200101907effffffffffffffffffffffffffffffffffffffffffffffffffffffffffffff1916908160001a905350600a856126049190613f6b565b945061255c565b8093505050505b919050565b6060600082519050600081141561264057604051806020016040528060008152509150506127d0565b600060036002836126519190613f15565b61265b9190613f6b565b60046126679190613f9c565b905060006020826126789190613f15565b67ffffffffffffffff8111156126b7577f4e487b7100000000000000000000000000000000000000000000000000000000600052604160045260246000fd5b6040519080825280601f01601f1916602001820160405280156126e95781602001600182028036833780820191505090505b509050600060405180606001604052806040815260200161487d604091399050600181016020830160005b8681101561278d5760038101905062ffffff818a015116603f8160121c168401518060081b905060ff603f83600c1c1686015116810190508060081b905060ff603f8360061c1686015116810190508060081b905060ff603f831686015116810190508060e01b90508084526004840193505050612714565b5060038606600181146127a757600281146127b7576127c2565b613d3d60f01b60028303526127c2565b603d60f81b60018303525b508484525050819450505050505b919050565b612871848484846040516024016127ef9493929190613aa2565b6040516020818303038152906040527fd5cf17d0000000000000000000000000000000000000000000000000000000007bffffffffffffffffffffffffffffffffffffffffffffffffffffffff19166020820180517bffffffffffffffffffffffffffffffffffffffffffffffffffffffff83818316178352505050506129de565b50505050565b61290f828260405160240161288d929190613b56565b6040516020818303038152906040527f9710a9d0000000000000000000000000000000000000000000000000000000007bffffffffffffffffffffffffffffffffffffffffffffffffffffffff19166020820180517bffffffffffffffffffffffffffffffffffffffffffffffffffffffff83818316178352505050506129de565b5050565b600081600001549050919050565b61293b828260405180602001604052806000815250612c14565b5050565b6129d983838360405160240161295793929190613b86565b6040516020818303038152906040527f969cdd03000000000000000000000000000000000000000000000000000000007bffffffffffffffffffffffffffffffffffffffffffffffffffffffff19166020820180517bffffffffffffffffffffffffffffffffffffffffffffffffffffffff83818316178352505050506129de565b505050565b60008151905060006a636f6e736f6c652e6c6f679050602083016000808483855afa5050505050565b60008073ffffffffffffffffffffffffffffffffffffffff166002600084815260200190815260200160002060009054906101000a900473ffffffffffffffffffffffffffffffffffffffff1673ffffffffffffffffffffffffffffffffffffffff1614159050919050565b505050565b505050565b6000612a9e8473ffffffffffffffffffffffffffffffffffffffff16612c6f565b15612c07578373ffffffffffffffffffffffffffffffffffffffff1663150b7a02612ac7611ee4565b8786866040518563ffffffff1660e01b8152600401612ae99493929190613966565b602060405180830381600087803b158015612b0357600080fd5b505af1925050508015612b3457506040513d601f19601f82011682018060405250810190612b319190613215565b60015b612bb7573d8060008114612b64576040519150601f19603f3d011682016040523d82523d6000602084013e612b69565b606091505b50600081511415612baf576040517f08c379a0000000000000000000000000000000000000000000000000000000008152600401612ba690613bc4565b60405180910390fd5b805181602001fd5b63150b7a0260e01b7bffffffffffffffffffffffffffffffffffffffffffffffffffffffff1916817bffffffffffffffffffffffffffffffffffffffffffffffffffffffff191614915050612c0c565b600190505b949350505050565b612c1e8383612c92565b612c2b6000848484612a7d565b612c6a576040517f08c379a0000000000000000000000000000000000000000000000000000000008152600401612c6190613bc4565b60405180910390fd5b505050565b6000808273ffffffffffffffffffffffffffffffffffffffff163b119050919050565b600073ffffffffffffffffffffffffffffffffffffffff168273ffffffffffffffffffffffffffffffffffffffff161415612d02576040517f08c379a0000000000000000000000000000000000000000000000000000000008152600401612cf990613ca4565b60405180910390fd5b612d0b81612a07565b15612d4b576040517f08c379a0000000000000000000000000000000000000000000000000000000008152600401612d4290613c04565b60405180910390fd5b612d5760008383612a73565b6001600360008473ffffffffffffffffffffffffffffffffffffffff1673ffffffffffffffffffffffffffffffffffffffff1681526020019081526020016000206000828254612da79190613f15565b92505081905550816002600083815260200190815260200160002060006101000a81548173ffffffffffffffffffffffffffffffffffffffff021916908373ffffffffffffffffffffffffffffffffffffffff160217905550808273ffffffffffffffffffffffffffffffffffffffff16600073ffffffffffffffffffffffffffffffffffffffff167fddf252ad1be2c89b69c2b068fc378daa952ba7f163c4a11628f55a4df523b3ef60405160405180910390a4612e6860008383612a78565b5050565b6040518060a0016040528060608152602001606081526020016000815260200160008152602001600081525090565b6040518060c001604052806000815260200160608152602001606081526020016000815260200160008152602001600081525090565b828054612edd906140e0565b90600052602060002090601f016020900481019282612eff5760008555612f46565b82601f10612f1857805160ff1916838001178555612f46565b82800160010185558215612f46579182015b82811115612f45578251825591602001919060010190612f2a565b5b509050612f539190612f57565b5090565b5b80821115612f70576000816000905550600101612f58565b5090565b6000612f87612f8284613e57565b613e32565b905082815260208101848484011115612f9f57600080fd5b612faa84828561409e565b509392505050565b600081359050612fc1816147fb565b92915050565b600081359050612fd681614812565b92915050565b600081359050612feb81614829565b92915050565b60008151905061300081614829565b92915050565b600082601f83011261301757600080fd5b8135613027848260208601612f74565b91505092915050565b60008135905061303f81614840565b92915050565b60006020828403121561305757600080fd5b600061306584828501612fb2565b91505092915050565b6000806040838503121561308157600080fd5b600061308f85828601612fb2565b92505060206130a085828601612fb2565b9150509250929050565b6000806000606084860312156130bf57600080fd5b60006130cd86828701612fb2565b93505060206130de86828701612fb2565b92505060406130ef86828701613030565b9150509250925092565b6000806000806080858703121561310f57600080fd5b600061311d87828801612fb2565b945050602061312e87828801612fb2565b935050604061313f87828801613030565b925050606085013567ffffffffffffffff81111561315c57600080fd5b61316887828801613006565b91505092959194509250565b6000806040838503121561318757600080fd5b600061319585828601612fb2565b92505060206131a685828601612fc7565b9150509250929050565b600080604083850312156131c357600080fd5b60006131d185828601612fb2565b92505060206131e285828601613030565b9150509250929050565b6000602082840312156131fe57600080fd5b600061320c84828501612fdc565b91505092915050565b60006020828403121561322757600080fd5b600061323584828501612ff1565b91505092915050565b60006020828403121561325057600080fd5b600061325e84828501613030565b91505092915050565b60006132738383613746565b905092915050565b6132848161402a565b82525050565b600061329582613e98565b61329f8185613ec6565b9350836020820285016132b185613e88565b8060005b858110156132ed57848403895281516132ce8582613267565b94506132d983613eb9565b925060208a019950506001810190506132b5565b50829750879550505050505092915050565b6133088161403c565b82525050565b600061331982613ea3565b6133238185613ed7565b93506133338185602086016140ad565b61333c81614279565b840191505092915050565b600061335282613eae565b61335c8185613ee8565b935061336c8185602086016140ad565b61337581614279565b840191505092915050565b600061338b82613eae565b6133958185613ef9565b93506133a58185602086016140ad565b6133ae81614279565b840191505092915050565b60006133c482613eae565b6133ce8185613f0a565b93506133de8185602086016140ad565b80840191505092915050565b60006133f7600b83613f0a565b91506134028261428a565b600b82019050919050565b600061341a603283613ef9565b9150613425826142b3565b604082019050919050565b600061343d602583613ef9565b915061344882614302565b604082019050919050565b6000613460601c83613ef9565b915061346b82614351565b602082019050919050565b6000613483600e83613f0a565b915061348e8261437a565b600e82019050919050565b60006134a6602483613ef9565b91506134b1826143a3565b604082019050919050565b60006134c9601983613ef9565b91506134d4826143f2565b602082019050919050565b60006134ec602983613ef9565b91506134f78261441b565b604082019050919050565b600061350f606283613f0a565b915061351a8261446a565b606282019050919050565b6000613532600483613f0a565b915061353d82614505565b600482019050919050565b6000613555603e83613ef9565b91506135608261452e565b604082019050919050565b6000613578602083613ef9565b91506135838261457d565b602082019050919050565b600061359b600a83613f0a565b91506135a6826145a6565b600a82019050919050565b60006135be601883613ef9565b91506135c9826145cf565b602082019050919050565b60006135e1602183613ef9565b91506135ec826145f8565b604082019050919050565b6000613604602983613ef9565b915061360f82614647565b604082019050919050565b6000613627601d83613f0a565b915061363282614696565b601d82019050919050565b600061364a603d83613f0a565b9150613655826146bf565b603d82019050919050565b600061366d602d83613f0a565b91506136788261470e565b602d82019050919050565b6000613690602e83613ef9565b915061369b8261475d565b604082019050919050565b60006136b3602d83613ef9565b91506136be826147ac565b604082019050919050565b600060a08301600083015184820360008601526136e68282613347565b915050602083015184820360208601526137008282613347565b91505060408301516137156040860182613866565b5060608301516137286060860182613866565b50608083015161373b6080860182613866565b508091505092915050565b600060c08301600083015161375e6000860182613866565b50602083015184820360208601526137768282613347565b915050604083015184820360408601526137908282613347565b91505060608301516137a56060860182613866565b5060808301516137b86080860182613866565b5060a08301516137cb60a0860182613866565b508091505092915050565b600060c0830160008301516137ee6000860182613866565b50602083015184820360208601526138068282613347565b915050604083015184820360408601526138208282613347565b91505060608301516138356060860182613866565b5060808301516138486080860182613866565b5060a083015161385b60a0860182613866565b508091505092915050565b61386f81614094565b82525050565b61387e81614094565b82525050565b600061388f8261358e565b915061389b82896133b9565b91506138a6826133ea565b91506138b282886133b9565b91506138bd82613502565b91506138c982876133b9565b91506138d48261363d565b91506138e082866133b9565b91506138eb82613476565b91506138f782856133b9565b915061390282613660565b915061390e82846133b9565b915061391982613525565b9150819050979650505050505050565b60006139348261361a565b915061394082846133b9565b915081905092915050565b6000602082019050613960600083018461327b565b92915050565b600060808201905061397b600083018761327b565b613988602083018661327b565b6139956040830185613875565b81810360608301526139a7818461330e565b905095945050505050565b60006060820190506139c7600083018661327b565b6139d46020830185613875565b6139e16040830184613875565b949350505050565b60006020820190508181036000830152613a03818461328a565b905092915050565b6000602082019050613a2060008301846132ff565b92915050565b60006020820190508181036000830152613a408184613380565b905092915050565b60006080820190508181036000830152613a628187613380565b90508181036020830152613a768186613380565b9050613a856040830185613875565b8181036060830152613a978184613380565b905095945050505050565b60006080820190508181036000830152613abc8187613380565b90508181036020830152613ad08186613380565b9050613adf6040830185613875565b613aec6060830184613875565b95945050505050565b600060a0820190508181036000830152613b0f8188613380565b90508181036020830152613b238187613380565b9050613b326040830186613875565b613b3f6060830185613875565b613b4c6080830184613875565b9695505050505050565b60006040820190508181036000830152613b708185613380565b9050613b7f6020830184613875565b9392505050565b60006060820190508181036000830152613ba08186613380565b9050613baf6020830185613875565b613bbc6040830184613875565b949350505050565b60006020820190508181036000830152613bdd8161340d565b9050919050565b60006020820190508181036000830152613bfd81613430565b9050919050565b60006020820190508181036000830152613c1d81613453565b9050919050565b60006020820190508181036000830152613c3d81613499565b9050919050565b60006020820190508181036000830152613c5d816134bc565b9050919050565b60006020820190508181036000830152613c7d816134df565b9050919050565b60006020820190508181036000830152613c9d81613548565b9050919050565b60006020820190508181036000830152613cbd8161356b565b9050919050565b60006020820190508181036000830152613cdd816135b1565b9050919050565b60006020820190508181036000830152613cfd816135d4565b9050919050565b60006020820190508181036000830152613d1d816135f7565b9050919050565b60006020820190508181036000830152613d3d81613683565b9050919050565b60006020820190508181036000830152613d5d816136a6565b9050919050565b60006020820190508181036000830152613d7e81846136c9565b905092915050565b60006020820190508181036000830152613da081846137d6565b905092915050565b6000602082019050613dbd6000830184613875565b92915050565b600060c082019050613dd86000830189613875565b8181036020830152613dea8188613380565b90508181036040830152613dfe8187613380565b9050613e0d6060830186613875565b613e1a6080830185613875565b613e2760a0830184613875565b979650505050505050565b6000613e3c613e4d565b9050613e488282614112565b919050565b6000604051905090565b600067ffffffffffffffff821115613e7257613e7161424a565b5b613e7b82614279565b9050602081019050919050565b6000819050602082019050919050565b600081519050919050565b600081519050919050565b600081519050919050565b6000602082019050919050565b600082825260208201905092915050565b600082825260208201905092915050565b600082825260208201905092915050565b600082825260208201905092915050565b600081905092915050565b6000613f2082614094565b9150613f2b83614094565b9250827fffffffffffffffffffffffffffffffffffffffffffffffffffffffffffffffff03821115613f6057613f5f6141bd565b5b828201905092915050565b6000613f7682614094565b9150613f8183614094565b925082613f9157613f906141ec565b5b828204905092915050565b6000613fa782614094565b9150613fb283614094565b9250817fffffffffffffffffffffffffffffffffffffffffffffffffffffffffffffffff0483118215151615613feb57613fea6141bd565b5b828202905092915050565b600061400182614094565b915061400c83614094565b92508282101561401f5761401e6141bd565b5b828203905092915050565b600061403582614074565b9050919050565b60008115159050919050565b60007fffffffff0000000000000000000000000000000000000000000000000000000082169050919050565b600073ffffffffffffffffffffffffffffffffffffffff82169050919050565b6000819050919050565b82818337600083830152505050565b60005b838110156140cb5780820151818401526020810190506140b0565b838111156140da576000848401525b50505050565b600060028204905060018216806140f857607f821691505b6020821081141561410c5761410b61421b565b5b50919050565b61411b82614279565b810181811067ffffffffffffffff8211171561413a5761413961424a565b5b80604052505050565b600061414e82614094565b91507fffffffffffffffffffffffffffffffffffffffffffffffffffffffffffffffff821415614181576141806141bd565b5b600182019050919050565b600061419782614094565b91506141a283614094565b9250826141b2576141b16141ec565b5b828206905092915050565b7f4e487b7100000000000000000000000000000000000000000000000000000000600052601160045260246000fd5b7f4e487b7100000000000000000000000000000000000000000000000000000000600052601260045260246000fd5b7f4e487b7100000000000000000000000000000000000000000000000000000000600052602260045260246000fd5b7f4e487b7100000000000000000000000000000000000000000000000000000000600052604160045260246000fd5b6000601f19601f8301169050919050565b7f202d2d204e465420233a20000000000000000000000000000000000000000000600082015250565b7f4552433732313a207472616e7366657220746f206e6f6e20455243373231526560008201527f63656976657220696d706c656d656e7465720000000000000000000000000000602082015250565b7f4552433732313a207472616e736665722066726f6d20696e636f72726563742060008201527f6f776e6572000000000000000000000000000000000000000000000000000000602082015250565b7f4552433732313a20746f6b656e20616c7265616479206d696e74656400000000600082015250565b7f2c20226d61785f76616c7565223a000000000000000000000000000000000000600082015250565b7f4552433732313a207472616e7366657220746f20746865207a65726f2061646460008201527f7265737300000000000000000000000000000000000000000000000000000000602082015250565b7f4552433732313a20617070726f766520746f2063616c6c657200000000000000600082015250565b7f4552433732313a2061646472657373207a65726f206973206e6f74206120766160008201527f6c6964206f776e65720000000000000000000000000000000000000000000000602082015250565b7f222c20226465736372697074696f6e223a20225468697320697320616e204e4660008201527f542074686174206c6574732070656f706c6520706c617920696e20746865206760208201527f616d65204d657461766572736520536c6179657221222c2022696d616765223a60408201527f2022000000000000000000000000000000000000000000000000000000000000606082015250565b7f7d205d7d00000000000000000000000000000000000000000000000000000000600082015250565b7f4552433732313a20617070726f76652063616c6c6572206973206e6f7420746f60008201527f6b656e206f776e6572206e6f7220617070726f76656420666f7220616c6c0000602082015250565b7f4552433732313a206d696e7420746f20746865207a65726f2061646472657373600082015250565b7f7b226e616d65223a202200000000000000000000000000000000000000000000600082015250565b7f4552433732313a20696e76616c696420746f6b656e2049440000000000000000600082015250565b7f4552433732313a20617070726f76616c20746f2063757272656e74206f776e6560008201527f7200000000000000000000000000000000000000000000000000000000000000602082015250565b7f4572726f723a20426f7373206d757374206861766520487020746f206174746160008201527f636b20706c617965720000000000000000000000000000000000000000000000602082015250565b7f646174613a6170706c69636174696f6e2f6a736f6e3b6261736536342c000000600082015250565b7f222c202261747472696275746573223a205b207b202274726169745f7479706560008201527f223a20224865616c746820506f696e7473222c202276616c7565223a20000000602082015250565b7f7d2c207b202274726169745f74797065223a202241747461636b2044616d616760008201527f65222c202276616c7565223a2000000000000000000000000000000000000000602082015250565b7f4552433732313a2063616c6c6572206973206e6f7420746f6b656e206f776e6560008201527f72206e6f7220617070726f766564000000000000000000000000000000000000602082015250565b7f4572726f723a20506c61796572206d757374206861766520487020746f20617460008201527f7461636b2074686520626f737300000000000000000000000000000000000000602082015250565b6148048161402a565b811461480f57600080fd5b50565b61481b8161403c565b811461482657600080fd5b50565b61483281614048565b811461483d57600080fd5b50565b61484981614094565b811461485457600080fd5b5056fe506c617965722061747461636b656420626f73732e204e657720626f73732068703a2025734142434445464748494a4b4c4d4e4f505152535455565758595a6162636465666768696a6b6c6d6e6f707172737475767778797a303132333435363738392b2f426f73732061747461636b656420706c617965722e204e657720706c617965722068703a2025730a4d696e746564204e465420772f20746f6b656e496420257320616e6420636861726163746572496e6465782025730a506c6179657220772f206368617261637465722025732061626f757420746f2061747461636b2e2048617320257320485020616e64202573204144a26469706673582212203d1e15bf4a1c21320feee65f0f9babab81b88728d980a8e737b7460a6960679e64736f6c63430008040033446f6e6520696e697469616c697a696e6720257320772f2048502025732c20696d67202573496e697469616c697a65642042696720424f535320257320776974682025772048502c20696d67202573",
  "linkReferences": {},
  "deployedLinkReferences": {}
}